:0400000064EF01F0B8
:08000800046ED8CF05F0E0CF33
:1000100006F00001E9CF0CF0EACF07F0E1CF08F0DD
:10002000E2CF09F0D9CF0AF0DACF0BF0F3CF12F01C
:10003000F4CF13F0FACF14F0F5CF15F0F6CF16F099
:10004000F7CF17F000C00EF001C00FF002C010F0A3
:1000500003C011F09DAA30EF00F09EBA63EF00F0EC
:100060000EC000F00FC001F010C002F011C003F08C
:100070000CC0E9FF07C0EAFF078E08C0E1FF09C016
:10008000E2FF0AC0D9FF0BC0DAFF12C0F3FF13C0B2
:10009000F4FF14C0FAFF15C0F5FF16C0F6FF17C035
:1000A000F7FF045006C0E0FF05C0D8FF10009EAA6D
:1000B000FED7ABCF1BF0AECF01F01BA202D0AB98A6
:1000C000AB886FEF00F0036A23501F0FE96E000E3C
:1000D0000320EA6EEACF37F0E9CF36F0E8D737C031
:1000E000EAFF36C0E9FF01C0EFFF010E036E100EFC
:1000F0001F5C0BE1035209E11E5207E1232A235042
:10010000030803E2236A010E1E6E9E9A30EF00F090
:100110004000EA6A290EE96EEF500DE0060E016E0E
:10012000006A002EFED7012EFBD77B0E006E002E3C
:10013000FED7EF2EF3D786EF01F08E0E006E2AC0A9
:1001400001F029C002F0036A015209E102C001F086
:10015000026A080E005E015202E1006A08D0D890DF
:1001600001BE04D0023601360006F9D7019E9EEF8B
:1001700001F02950D8B471D0006E2D50D8B46DD094
:10018000002604E3810E002668E204D07F0E005EA4
:1001900064E363E02AC031F02E50311A2A8E2E8E8D
:1001A0002C503002F4CF33F02B502F02F4CF03F059
:1001B000F3CF32F03002F3503326F4503222000EE7
:1001C00003222C502F02F3503326F4503222000E1B
:1001D000026A032202222A503002F3503226F450DF
:1001E0000322000E02222A502F02F3500326F4505D
:1001F0000222000E016A01222C502E02F3503226F8
:10020000F4500322000E022201222B502E02F35042
:100210000326F4500222000E01222A502E02F3502F
:100220000226F4500122002A01BE05D032360336E0
:10023000023601360006000E32AE0AD0032A022230
:100240000122015005E1025003E1035001E1002ABF
:1002500031BE018E31AE019E04D0006A016A026A8D
:10026000036AAFEF01F08E0E006E2950005E2AC0C7
:1002700002F02BC001F0028E005209E0D890025229
:1002800002E1015204E002320132002EF7D72AAE19
:1002900005D0011E021E012AD8B4022AB8EF01F0CF
:1002A0002B50016A2A5C03E22AC000F00CD0006ADD
:1002B000080E2C6E2A3600362B50005CD8B0006E2B
:1002C00001362C2EF7D71200F86AD09E078E1B6AD3
:1002D000810EAF6EA60EAC6E900EAB6E1C6A1D6AE0
:1002E0001E6A236AC180C182C184C196070EB46EA2
:1002F000196A1A6A850ECD6E9D809D8AC00EF21213
:10030000D26A94908B900A0E296E03D794908B80BA
:10031000100E006E002EFED7000094908B909482F9
:1003200082A2FDD7CF6ACE6A0000948282B2FDD746
:10033000010E1C6E2A6A1DC029F0FFD603C02CF0E6
:1003400002C02BF001C02AF000C029F09A0E306ED6
:10035000990E2F6E510E2E6E820E2D6E0AD703C08F
:100360002CF002C02BF001C02AF000C029F07BD78E
:1003700001C025F01D6A2550220DF3CF00F0D89062
:100380000030266E265063081EE226C02AF0640E56
:100390002B6E86DF01C027F026C02AF0640E2B6E7C
:1003A0007FDF00C02AF00A0E2B6E7ADF01C028F032
:1003B000959E8C8E2838006E0F0E00160050272454
:1003C000936A8A6E18D026C02AF00A0E2B6E68DF58
:1003D00001C027F026C02AF00A0E2B6E61DF00C094
:1003E00028F0959E8C9E2838006E0F0E0016005047
:1003F0002724936A8A6E2650245C04E295928C82AC
:1004000095908C902450265C04E295928C92959065
:100410008C701E520FE0300E205C640DF3CF29F07B
:10042000300E215C0A0DF3502926300E225C29245F
:10043000246E1E6A245202E1320E246E62D703003B
:020000040030CA
:0E00000000220E0E000081000FC00FE00F4026
:00000001FF
;PIC18F458
;CRC=2526  CREATED="09-mai-22 13:15"
